{
  "_format": "hh-sol-artifact-1",
  "contractName": "DePay",
  "sourceName": "contracts/DePay.sol",
  "abi": [
    {
      "inputs": [],
      "stateMutability": "nonpayable",
      "type": "constructor"
    },
    {
      "inputs": [
        {
          "internalType": "uint256",
          "name": "amount",
          "type": "uint256"
        },
        {
          "internalType": "address",
          "name": "reciever",
          "type": "address"
        }
      ],
      "name": "addTransaction",
      "outputs": [],
      "stateMutability": "nonpayable",
      "type": "function"
    },
    {
      "inputs": [],
      "name": "arrayCounter",
      "outputs": [
        {
          "internalType": "uint256",
          "name": "",
          "type": "uint256"
        }
      ],
      "stateMutability": "view",
      "type": "function"
    },
    {
      "inputs": [],
      "name": "getCurrentPrices",
      "outputs": [
        {
          "internalType": "int256",
          "name": "",
          "type": "int256"
        },
        {
          "internalType": "int256",
          "name": "",
          "type": "int256"
        },
        {
          "internalType": "int256",
          "name": "",
          "type": "int256"
        },
        {
          "internalType": "int256",
          "name": "",
          "type": "int256"
        }
      ],
      "stateMutability": "view",
      "type": "function"
    },
    {
      "inputs": [
        {
          "internalType": "uint256",
          "name": "_index",
          "type": "uint256"
        }
      ],
      "name": "getTransaction",
      "outputs": [
        {
          "internalType": "uint256",
          "name": "",
          "type": "uint256"
        },
        {
          "internalType": "address",
          "name": "",
          "type": "address"
        }
      ],
      "stateMutability": "view",
      "type": "function"
    },
    {
      "inputs": [
        {
          "internalType": "uint256",
          "name": "",
          "type": "uint256"
        }
      ],
      "name": "recentTransactions",
      "outputs": [
        {
          "internalType": "uint256",
          "name": "amount",
          "type": "uint256"
        },
        {
          "internalType": "address",
          "name": "reciever",
          "type": "address"
        }
      ],
      "stateMutability": "view",
      "type": "function"
    }
  ],
  "bytecode": "0x608060405234801561001057600080fd5b506000600581905550736135b13325bfc4b00278b4abc5e20bbce2d6580e6000806101000a81548173ffffffffffffffffffffffffffffffffffffffff021916908373ffffffffffffffffffffffffffffffffffffffff160217905550739326bfa02add2366b30bacb125260af641031331600160006101000a81548173ffffffffffffffffffffffffffffffffffffffff021916908373ffffffffffffffffffffffffffffffffffffffff16021790555073396c5e36dd0a0f5a5d33dae44368d4193f69a1f0600260006101000a81548173ffffffffffffffffffffffffffffffffffffffff021916908373ffffffffffffffffffffffffffffffffffffffff1602179055507331f93da9823d737b7e44bdee0df389fe62fd1acd600360006101000a81548173ffffffffffffffffffffffffffffffffffffffff021916908373ffffffffffffffffffffffffffffffffffffffff160217905550610b9b8061017b6000396000f3fe608060405234801561001057600080fd5b50600436106100575760003560e01c806333ea3dc81461005c5780638370d0301461008d578063852d0d6e146100a9578063a0a0f945146100ca578063c0d2037e146100fb575b600080fd5b61007660048036038101906100719190610819565b610119565b604051610084929190610982565b60405180910390f35b6100a760048036038101906100a29190610842565b6101dd565b005b6100b161049b565b6040516100c19493929190610922565b60405180910390f35b6100e460048036038101906100df9190610819565b610756565b6040516100f2929190610982565b60405180910390f35b6101036107aa565b6040516101109190610967565b60405180910390f35b60008060048381548110610156577f4e487b7100000000000000000000000000000000000000000000000000000000600052603260045260246000fd5b906000526020600020906002020160000154600484815481106101a2577f4e487b7100000000000000000000000000000000000000000000000000000000600052603260045260246000fd5b906000526020600020906002020160010160009054906101000a900473ffffffffffffffffffffffffffffffffffffffff1691509150915091565b600060405180604001604052808481526020018373ffffffffffffffffffffffffffffffffffffffff168152509050600560048054905014156103fc5760005b600160048054905061022f9190610a01565b81101561035957600460018261024591906109ab565b8154811061027c577f4e487b7100000000000000000000000000000000000000000000000000000000600052603260045260246000fd5b9060005260206000209060020201600482815481106102c4577f4e487b7100000000000000000000000000000000000000000000000000000000600052603260045260246000fd5b9060005260206000209060020201600082015481600001556001820160009054906101000a900473ffffffffffffffffffffffffffffffffffffffff168160010160006101000a81548173ffffffffffffffffffffffffffffffffffffffff021916908373ffffffffffffffffffffffffffffffffffffffff160217905550905050808061035190610a91565b91505061021d565b508060048081548110610395577f4e487b7100000000000000000000000000000000000000000000000000000000600052603260045260246000fd5b90600052602060002090600202016000820151816000015560208201518160010160006101000a81548173ffffffffffffffffffffffffffffffffffffffff021916908373ffffffffffffffffffffffffffffffffffffffff160217905550905050610496565b60048190806001815401808255809150506001900390600052602060002090600202016000909190919091506000820151816000015560208201518160010160006101000a81548173ffffffffffffffffffffffffffffffffffffffff021916908373ffffffffffffffffffffffffffffffffffffffff160217905550505060016005600082825461048e91906109ab565b925050819055505b505050565b60008060008060008060009054906101000a900473ffffffffffffffffffffffffffffffffffffffff1673ffffffffffffffffffffffffffffffffffffffff1663feaf968c6040518163ffffffff1660e01b815260040160a06040518083038186803b15801561050a57600080fd5b505afa15801561051e573d6000803e3d6000fd5b505050506040513d601f19601f82011682018060405250810190610542919061087e565b5050509150506000600160009054906101000a900473ffffffffffffffffffffffffffffffffffffffff1673ffffffffffffffffffffffffffffffffffffffff1663feaf968c6040518163ffffffff1660e01b815260040160a06040518083038186803b1580156105b257600080fd5b505afa1580156105c6573d6000803e3d6000fd5b505050506040513d601f19601f820116820180604052508101906105ea919061087e565b5050509150506000600260009054906101000a900473ffffffffffffffffffffffffffffffffffffffff1673ffffffffffffffffffffffffffffffffffffffff1663feaf968c6040518163ffffffff1660e01b815260040160a06040518083038186803b15801561065a57600080fd5b505afa15801561066e573d6000803e3d6000fd5b505050506040513d601f19601f82011682018060405250810190610692919061087e565b5050509150506000600360009054906101000a900473ffffffffffffffffffffffffffffffffffffffff1673ffffffffffffffffffffffffffffffffffffffff1663feaf968c6040518163ffffffff1660e01b815260040160a06040518083038186803b15801561070257600080fd5b505afa158015610716573d6000803e3d6000fd5b505050506040513d601f19601f8201168201806040525081019061073a919061087e565b5050509150508383838397509750975097505050505090919293565b6004818154811061076657600080fd5b90600052602060002090600202016000915090508060000154908060010160009054906101000a900473ffffffffffffffffffffffffffffffffffffffff16905082565b60055481565b6000813590506107bf81610b09565b92915050565b6000815190506107d481610b20565b92915050565b6000813590506107e981610b37565b92915050565b6000815190506107fe81610b37565b92915050565b60008151905061081381610b4e565b92915050565b60006020828403121561082b57600080fd5b6000610839848285016107da565b91505092915050565b6000806040838503121561085557600080fd5b6000610863858286016107da565b9250506020610874858286016107b0565b9150509250929050565b600080600080600060a0868803121561089657600080fd5b60006108a488828901610804565b95505060206108b5888289016107c5565b94505060406108c6888289016107ef565b93505060606108d7888289016107ef565b92505060806108e888828901610804565b9150509295509295909350565b6108fe81610a35565b82525050565b61090d81610a47565b82525050565b61091c81610a71565b82525050565b60006080820190506109376000830187610904565b6109446020830186610904565b6109516040830185610904565b61095e6060830184610904565b95945050505050565b600060208201905061097c6000830184610913565b92915050565b60006040820190506109976000830185610913565b6109a460208301846108f5565b9392505050565b60006109b682610a71565b91506109c183610a71565b9250827fffffffffffffffffffffffffffffffffffffffffffffffffffffffffffffffff038211156109f6576109f5610ada565b5b828201905092915050565b6000610a0c82610a71565b9150610a1783610a71565b925082821015610a2a57610a29610ada565b5b828203905092915050565b6000610a4082610a51565b9050919050565b6000819050919050565b600073ffffffffffffffffffffffffffffffffffffffff82169050919050565b6000819050919050565b600069ffffffffffffffffffff82169050919050565b6000610a9c82610a71565b91507fffffffffffffffffffffffffffffffffffffffffffffffffffffffffffffffff821415610acf57610ace610ada565b5b600182019050919050565b7f4e487b7100000000000000000000000000000000000000000000000000000000600052601160045260246000fd5b610b1281610a35565b8114610b1d57600080fd5b50565b610b2981610a47565b8114610b3457600080fd5b50565b610b4081610a71565b8114610b4b57600080fd5b50565b610b5781610a7b565b8114610b6257600080fd5b5056fea26469706673582212206be6f3cf8886a949b22b470f70f87f6d116ee437dca455380d252f90852fc67b64736f6c63430008040033",
  "linkReferences": {},
  "deployedLinkReferences": {}
}