{
  "_format": "hh-sol-artifact-1",
  "contractName": "DePay",
  "sourceName": "contracts/DePay.sol",
  "abi": [
    {
      "inputs": [],
      "stateMutability": "nonpayable",
      "type": "constructor"
    },
    {
      "inputs": [],
      "name": "getCurrentPrices",
      "outputs": [
        {
          "internalType": "int256",
          "name": "",
          "type": "int256"
        },
        {
          "internalType": "int256",
          "name": "",
          "type": "int256"
        },
        {
          "internalType": "int256",
          "name": "",
          "type": "int256"
        }
      ],
      "stateMutability": "view",
      "type": "function"
    }
  ],
  "bytecode": "0x608060405234801561001057600080fd5b50736135b13325bfc4b00278b4abc5e20bbce2d6580e6000806101000a81548173ffffffffffffffffffffffffffffffffffffffff021916908373ffffffffffffffffffffffffffffffffffffffff160217905550739326bfa02add2366b30bacb125260af641031331600160006101000a81548173ffffffffffffffffffffffffffffffffffffffff021916908373ffffffffffffffffffffffffffffffffffffffff16021790555073396c5e36dd0a0f5a5d33dae44368d4193f69a1f0600260006101000a81548173ffffffffffffffffffffffffffffffffffffffff021916908373ffffffffffffffffffffffffffffffffffffffff1602179055506103fc8061011e6000396000f3fe608060405234801561001057600080fd5b506004361061002b5760003560e01c8063852d0d6e14610030575b600080fd5b610038610050565b60405161004793929190610320565b60405180910390f35b60008060008060008054906101000a900473ffffffffffffffffffffffffffffffffffffffff1673ffffffffffffffffffffffffffffffffffffffff1663feaf968c6040518163ffffffff1660e01b815260040160a06040518083038186803b1580156100bc57600080fd5b505afa1580156100d0573d6000803e3d6000fd5b505050506040513d601f19601f820116820180604052508101906100f4919061029a565b5050509150506000600160009054906101000a900473ffffffffffffffffffffffffffffffffffffffff1673ffffffffffffffffffffffffffffffffffffffff1663feaf968c6040518163ffffffff1660e01b815260040160a06040518083038186803b15801561016457600080fd5b505afa158015610178573d6000803e3d6000fd5b505050506040513d601f19601f8201168201806040525081019061019c919061029a565b5050509150506000600260009054906101000a900473ffffffffffffffffffffffffffffffffffffffff1673ffffffffffffffffffffffffffffffffffffffff1663feaf968c6040518163ffffffff1660e01b815260040160a06040518083038186803b15801561020c57600080fd5b505afa158015610220573d6000803e3d6000fd5b505050506040513d601f19601f82011682018060405250810190610244919061029a565b505050915050828282955095509550505050909192565b60008151905061026a81610381565b92915050565b60008151905061027f81610398565b92915050565b600081519050610294816103af565b92915050565b600080600080600060a086880312156102b257600080fd5b60006102c088828901610285565b95505060206102d18882890161025b565b94505060406102e288828901610270565b93505060606102f388828901610270565b925050608061030488828901610285565b9150509295509295909350565b61031a81610357565b82525050565b60006060820190506103356000830186610311565b6103426020830185610311565b61034f6040830184610311565b949350505050565b6000819050919050565b6000819050919050565b600069ffffffffffffffffffff82169050919050565b61038a81610357565b811461039557600080fd5b50565b6103a181610361565b81146103ac57600080fd5b50565b6103b88161036b565b81146103c357600080fd5b5056fea2646970667358221220655b0fe130f7c83c19f72033783b02862746c7895b14d1da1367c1fa5fba361264736f6c63430008040033",
  "linkReferences": {},
  "deployedLinkReferences": {}
}