{
  "_format": "hh-sol-artifact-1",
  "contractName": "DePay",
  "sourceName": "contracts/DePay.sol",
  "abi": [
    {
      "inputs": [],
      "stateMutability": "nonpayable",
      "type": "constructor"
    },
    {
      "inputs": [
        {
          "internalType": "uint256",
          "name": "amount",
          "type": "uint256"
        },
        {
          "internalType": "address",
          "name": "reciever",
          "type": "address"
        }
      ],
      "name": "addTransaction",
      "outputs": [],
      "stateMutability": "nonpayable",
      "type": "function"
    },
    {
      "inputs": [],
      "name": "arrayCounter",
      "outputs": [
        {
          "internalType": "uint256",
          "name": "",
          "type": "uint256"
        }
      ],
      "stateMutability": "view",
      "type": "function"
    },
    {
      "inputs": [],
      "name": "getCurrentPrices",
      "outputs": [
        {
          "internalType": "int256",
          "name": "",
          "type": "int256"
        },
        {
          "internalType": "int256",
          "name": "",
          "type": "int256"
        },
        {
          "internalType": "int256",
          "name": "",
          "type": "int256"
        },
        {
          "internalType": "int256",
          "name": "",
          "type": "int256"
        },
        {
          "internalType": "int256",
          "name": "",
          "type": "int256"
        },
        {
          "internalType": "int256",
          "name": "",
          "type": "int256"
        }
      ],
      "stateMutability": "view",
      "type": "function"
    },
    {
      "inputs": [
        {
          "internalType": "uint256",
          "name": "_index",
          "type": "uint256"
        }
      ],
      "name": "getTransaction",
      "outputs": [
        {
          "internalType": "uint256",
          "name": "",
          "type": "uint256"
        },
        {
          "internalType": "address",
          "name": "",
          "type": "address"
        }
      ],
      "stateMutability": "view",
      "type": "function"
    },
    {
      "inputs": [
        {
          "internalType": "uint256",
          "name": "",
          "type": "uint256"
        }
      ],
      "name": "recentTransactions",
      "outputs": [
        {
          "internalType": "uint256",
          "name": "amount",
          "type": "uint256"
        },
        {
          "internalType": "address",
          "name": "reciever",
          "type": "address"
        }
      ],
      "stateMutability": "view",
      "type": "function"
    }
  ],
  "bytecode": "0x608060405234801561001057600080fd5b506000600781905550736135b13325bfc4b00278b4abc5e20bbce2d6580e6000806101000a81548173ffffffffffffffffffffffffffffffffffffffff021916908373ffffffffffffffffffffffffffffffffffffffff160217905550739326bfa02add2366b30bacb125260af641031331600160006101000a81548173ffffffffffffffffffffffffffffffffffffffff021916908373ffffffffffffffffffffffffffffffffffffffff16021790555073396c5e36dd0a0f5a5d33dae44368d4193f69a1f0600260006101000a81548173ffffffffffffffffffffffffffffffffffffffff021916908373ffffffffffffffffffffffffffffffffffffffff1602179055507331f93da9823d737b7e44bdee0df389fe62fd1acd600360006101000a81548173ffffffffffffffffffffffffffffffffffffffff021916908373ffffffffffffffffffffffffffffffffffffffff1602179055507348c9ff5bfd7d12e3c511022a6e54fb1c5b8dc3ea600460006101000a81548173ffffffffffffffffffffffffffffffffffffffff021916908373ffffffffffffffffffffffffffffffffffffffff16021790555073b31357d152638fd1ae0853d24b9ea81df29e3ef2600560006101000a81548173ffffffffffffffffffffffffffffffffffffffff021916908373ffffffffffffffffffffffffffffffffffffffff160217905550610d17806102256000396000f3fe608060405234801561001057600080fd5b50600436106100575760003560e01c806333ea3dc81461005c5780638370d0301461008d578063852d0d6e146100a9578063a0a0f945146100cc578063c0d2037e146100fd575b600080fd5b61007660048036038101906100719190610979565b61011b565b604051610084929190610afe565b60405180910390f35b6100a760048036038101906100a291906109a2565b6101df565b005b6100b161049e565b6040516100c396959493929190610a82565b60405180910390f35b6100e660048036038101906100e19190610979565b6108b6565b6040516100f4929190610afe565b60405180910390f35b61010561090a565b6040516101129190610ae3565b60405180910390f35b60008060068381548110610158577f4e487b7100000000000000000000000000000000000000000000000000000000600052603260045260246000fd5b906000526020600020906002020160000154600684815481106101a4577f4e487b7100000000000000000000000000000000000000000000000000000000600052603260045260246000fd5b906000526020600020906002020160010160009054906101000a900473ffffffffffffffffffffffffffffffffffffffff1691509150915091565b600060405180604001604052808481526020018373ffffffffffffffffffffffffffffffffffffffff168152509050600560068054905014156103ff5760005b60016006805490506102319190610b7d565b81101561035b5760066001826102479190610b27565b8154811061027e577f4e487b7100000000000000000000000000000000000000000000000000000000600052603260045260246000fd5b9060005260206000209060020201600682815481106102c6577f4e487b7100000000000000000000000000000000000000000000000000000000600052603260045260246000fd5b9060005260206000209060020201600082015481600001556001820160009054906101000a900473ffffffffffffffffffffffffffffffffffffffff168160010160006101000a81548173ffffffffffffffffffffffffffffffffffffffff021916908373ffffffffffffffffffffffffffffffffffffffff160217905550905050808061035390610c0d565b91505061021f565b50806006600481548110610398577f4e487b7100000000000000000000000000000000000000000000000000000000600052603260045260246000fd5b90600052602060002090600202016000820151816000015560208201518160010160006101000a81548173ffffffffffffffffffffffffffffffffffffffff021916908373ffffffffffffffffffffffffffffffffffffffff160217905550905050610499565b60068190806001815401808255809150506001900390600052602060002090600202016000909190919091506000820151816000015560208201518160010160006101000a81548173ffffffffffffffffffffffffffffffffffffffff021916908373ffffffffffffffffffffffffffffffffffffffff16021790555050506001600760008282546104919190610b27565b925050819055505b505050565b60008060008060008060008060009054906101000a900473ffffffffffffffffffffffffffffffffffffffff1673ffffffffffffffffffffffffffffffffffffffff1663feaf968c6040518163ffffffff1660e01b815260040160a06040518083038186803b15801561051057600080fd5b505afa158015610524573d6000803e3d6000fd5b505050506040513d601f19601f8201168201806040525081019061054891906109de565b5050509150506000600160009054906101000a900473ffffffffffffffffffffffffffffffffffffffff1673ffffffffffffffffffffffffffffffffffffffff1663feaf968c6040518163ffffffff1660e01b815260040160a06040518083038186803b1580156105b857600080fd5b505afa1580156105cc573d6000803e3d6000fd5b505050506040513d601f19601f820116820180604052508101906105f091906109de565b5050509150506000600260009054906101000a900473ffffffffffffffffffffffffffffffffffffffff1673ffffffffffffffffffffffffffffffffffffffff1663feaf968c6040518163ffffffff1660e01b815260040160a06040518083038186803b15801561066057600080fd5b505afa158015610674573d6000803e3d6000fd5b505050506040513d601f19601f8201168201806040525081019061069891906109de565b5050509150506000600360009054906101000a900473ffffffffffffffffffffffffffffffffffffffff1673ffffffffffffffffffffffffffffffffffffffff1663feaf968c6040518163ffffffff1660e01b815260040160a06040518083038186803b15801561070857600080fd5b505afa15801561071c573d6000803e3d6000fd5b505050506040513d601f19601f8201168201806040525081019061074091906109de565b5050509150506000600460009054906101000a900473ffffffffffffffffffffffffffffffffffffffff1673ffffffffffffffffffffffffffffffffffffffff1663feaf968c6040518163ffffffff1660e01b815260040160a06040518083038186803b1580156107b057600080fd5b505afa1580156107c4573d6000803e3d6000fd5b505050506040513d601f19601f820116820180604052508101906107e891906109de565b5050509150506000600560009054906101000a900473ffffffffffffffffffffffffffffffffffffffff1673ffffffffffffffffffffffffffffffffffffffff1663feaf968c6040518163ffffffff1660e01b815260040160a06040518083038186803b15801561085857600080fd5b505afa15801561086c573d6000803e3d6000fd5b505050506040513d601f19601f8201168201806040525081019061089091906109de565b5050509150508585858585859b509b509b509b509b509b50505050505050909192939495565b600681815481106108c657600080fd5b90600052602060002090600202016000915090508060000154908060010160009054906101000a900473ffffffffffffffffffffffffffffffffffffffff16905082565b60075481565b60008135905061091f81610c85565b92915050565b60008151905061093481610c9c565b92915050565b60008135905061094981610cb3565b92915050565b60008151905061095e81610cb3565b92915050565b60008151905061097381610cca565b92915050565b60006020828403121561098b57600080fd5b60006109998482850161093a565b91505092915050565b600080604083850312156109b557600080fd5b60006109c38582860161093a565b92505060206109d485828601610910565b9150509250929050565b600080600080600060a086880312156109f657600080fd5b6000610a0488828901610964565b9550506020610a1588828901610925565b9450506040610a268882890161094f565b9350506060610a378882890161094f565b9250506080610a4888828901610964565b9150509295509295909350565b610a5e81610bb1565b82525050565b610a6d81610bc3565b82525050565b610a7c81610bed565b82525050565b600060c082019050610a976000830189610a64565b610aa46020830188610a64565b610ab16040830187610a64565b610abe6060830186610a64565b610acb6080830185610a64565b610ad860a0830184610a64565b979650505050505050565b6000602082019050610af86000830184610a73565b92915050565b6000604082019050610b136000830185610a73565b610b206020830184610a55565b9392505050565b6000610b3282610bed565b9150610b3d83610bed565b9250827fffffffffffffffffffffffffffffffffffffffffffffffffffffffffffffffff03821115610b7257610b71610c56565b5b828201905092915050565b6000610b8882610bed565b9150610b9383610bed565b925082821015610ba657610ba5610c56565b5b828203905092915050565b6000610bbc82610bcd565b9050919050565b6000819050919050565b600073ffffffffffffffffffffffffffffffffffffffff82169050919050565b6000819050919050565b600069ffffffffffffffffffff82169050919050565b6000610c1882610bed565b91507fffffffffffffffffffffffffffffffffffffffffffffffffffffffffffffffff821415610c4b57610c4a610c56565b5b600182019050919050565b7f4e487b7100000000000000000000000000000000000000000000000000000000600052601160045260246000fd5b610c8e81610bb1565b8114610c9957600080fd5b50565b610ca581610bc3565b8114610cb057600080fd5b50565b610cbc81610bed565b8114610cc757600080fd5b50565b610cd381610bf7565b8114610cde57600080fd5b5056fea26469706673582212201c93143525440a2dc7b92da1c9a8acc12f4f9ce20e3b24b54a1451d68667006164736f6c63430008040033",
  "linkReferences": {},
  "deployedLinkReferences": {}
}