{
  "_format": "hh-sol-artifact-1",
  "contractName": "DePay",
  "sourceName": "contracts/DePay.sol",
  "abi": [
    {
      "inputs": [],
      "stateMutability": "nonpayable",
      "type": "constructor"
    },
    {
      "inputs": [],
      "name": "getCurrentPrices",
      "outputs": [
        {
          "internalType": "int256",
          "name": "",
          "type": "int256"
        },
        {
          "internalType": "int256",
          "name": "",
          "type": "int256"
        },
        {
          "internalType": "int256",
          "name": "",
          "type": "int256"
        },
        {
          "internalType": "int256",
          "name": "",
          "type": "int256"
        }
      ],
      "stateMutability": "view",
      "type": "function"
    }
  ],
  "bytecode": "0x608060405234801561001057600080fd5b50736135b13325bfc4b00278b4abc5e20bbce2d6580e6000806101000a81548173ffffffffffffffffffffffffffffffffffffffff021916908373ffffffffffffffffffffffffffffffffffffffff160217905550739326bfa02add2366b30bacb125260af641031331600160006101000a81548173ffffffffffffffffffffffffffffffffffffffff021916908373ffffffffffffffffffffffffffffffffffffffff16021790555073396c5e36dd0a0f5a5d33dae44368d4193f69a1f0600260006101000a81548173ffffffffffffffffffffffffffffffffffffffff021916908373ffffffffffffffffffffffffffffffffffffffff1602179055507331f93da9823d737b7e44bdee0df389fe62fd1acd600360006101000a81548173ffffffffffffffffffffffffffffffffffffffff021916908373ffffffffffffffffffffffffffffffffffffffff1602179055506104bb806101736000396000f3fe608060405234801561001057600080fd5b506004361061002b5760003560e01c8063852d0d6e14610030575b600080fd5b610038610051565b60405161004894939291906103d1565b60405180910390f35b60008060008060008060009054906101000a900473ffffffffffffffffffffffffffffffffffffffff1673ffffffffffffffffffffffffffffffffffffffff1663feaf968c6040518163ffffffff1660e01b815260040160a06040518083038186803b1580156100c057600080fd5b505afa1580156100d4573d6000803e3d6000fd5b505050506040513d601f19601f820116820180604052508101906100f8919061034b565b5050509150506000600160009054906101000a900473ffffffffffffffffffffffffffffffffffffffff1673ffffffffffffffffffffffffffffffffffffffff1663feaf968c6040518163ffffffff1660e01b815260040160a06040518083038186803b15801561016857600080fd5b505afa15801561017c573d6000803e3d6000fd5b505050506040513d601f19601f820116820180604052508101906101a0919061034b565b5050509150506000600260009054906101000a900473ffffffffffffffffffffffffffffffffffffffff1673ffffffffffffffffffffffffffffffffffffffff1663feaf968c6040518163ffffffff1660e01b815260040160a06040518083038186803b15801561021057600080fd5b505afa158015610224573d6000803e3d6000fd5b505050506040513d601f19601f82011682018060405250810190610248919061034b565b5050509150506000600360009054906101000a900473ffffffffffffffffffffffffffffffffffffffff1673ffffffffffffffffffffffffffffffffffffffff1663feaf968c6040518163ffffffff1660e01b815260040160a06040518083038186803b1580156102b857600080fd5b505afa1580156102cc573d6000803e3d6000fd5b505050506040513d601f19601f820116820180604052508101906102f0919061034b565b5050509150508383838397509750975097505050505090919293565b60008151905061031b81610440565b92915050565b60008151905061033081610457565b92915050565b6000815190506103458161046e565b92915050565b600080600080600060a0868803121561036357600080fd5b600061037188828901610336565b95505060206103828882890161030c565b945050604061039388828901610321565b93505060606103a488828901610321565b92505060806103b588828901610336565b9150509295509295909350565b6103cb81610416565b82525050565b60006080820190506103e660008301876103c2565b6103f360208301866103c2565b61040060408301856103c2565b61040d60608301846103c2565b95945050505050565b6000819050919050565b6000819050919050565b600069ffffffffffffffffffff82169050919050565b61044981610416565b811461045457600080fd5b50565b61046081610420565b811461046b57600080fd5b50565b6104778161042a565b811461048257600080fd5b5056fea264697066735822122003d10a3164913973770d2d82c95e3c6ada6c23cc2a94085a3960c795dd74751d64736f6c63430008040033",
  "linkReferences": {},
  "deployedLinkReferences": {}
}